:020000040000FA
:060000000A128A11122809
:10000800FE00030E83120313A4000408A5000A08C7
:10001800A6007F08A7000A168A15082A0A128A115C
:100028001528DA308317FD001B30FE006030FF0012
:10003800903084000A128A1504200A128A1143306B
:10004800FD001030FE000030FF00343084000A123A
:100058008A1504200A128A110130E500E600DA3018
:100068008400E7300A168A15E1210A128A11103035
:10007800840034300A168A15E1218316EF018312B1
:10008800DF01E001E101E201E301E40183010A1675
:100098008A15FC2BFF0000308A007F08820753284E
:1000A8000A128A11BF280A168A15AA2B0A128A115F
:1000B800AA280A128A11F8280A128A1196280A12FE
:1000C8008A1166290A128A1143290A168A150C2DE3
:1000D8000A128A112D29FF0000308A007F08820742
:1000E80074280A168A11682C0A168A15162B0A16FD
:1000F8008A11062C0A168A11332C0A168A111D2C0D
:100108000A168A11E62C0A168A11C12C0A128A11BB
:10011800322F0A168A11A72C0A168A112F2D0A16B1
:100128008A15F3298B13663005220A128A11003AC0
:10013800031DA428B401B40A630825220A128A11EF
:100148006630E4210A128A118B1796288B136530C2
:1001580005220A128A11003A031DBD286430E223E1
:100168000A128A11003A031DB2286530E4210A12E6
:100178008A118B17AA288B13653005220A128A1157
:10018800003A031DCC28B401640825220A128A11FA
:100198006530E4210A128A11601DF028600CFF0006
:1001A800FF0C7F0C0F39FF00FF0AFF0DFF0DFF0D3D
:1001B80060087F0687397F06E000600CB800B80C3D
:1001C800380C0F390A3A031DF628033049240A125D
:1001D8008A118730E005F6280330A801A80A082408
:1001E8000A128A118B17BF288B13663005220A1250
:1001F8008A11003A031D2B29003083160317660263
:10020800963003196502031C272983120313E01C87
:1002180027296330AA00AB01AB0A61080A168A15C0
:1002280037250A128A11213083120313B200753060
:10023800B100B10B1D29B20B1D2922290530D3218C
:100248000A128A112B296630E4210A128A118B17A7
:10025800F8288B130130A5210A128A11003A031DD0
:1002680041290130A5210A128A11003A03193529BA
:100278000030D3210A128A1160148B172D298B1391
:100288000030A5210A128A11003A031952290230B6
:10029800A5210A128A11003A031D64290030A521FC
:1002A8000A128A11003A031952290230A5210A12AA
:1002B8008A11003A031952290230D3210A128A11ED
:1002C8008B1743298B13663005220A128A11003ACC
:1002D800031DA3290030A5210A128A11003A031D23
:1002E8008A2928306302031C8A290030A5210A12B2
:1002F8008A11003A031979290530E3028316031796
:10030800E501E60183120313E014A3290230A521B5
:100318000A128A11003A031D9F2947306302031805
:100328009F290230A5210A128A11003A031995293A
:100338000530E30782296630E4210A128A118B17F7
:10034800662983120313AD00AC0103102D0D903EF6
:10035800840083170008AA000530AB01AA07031818
:10036800AB0A03102D0D913E84000008A9002A084D
:10037800840083172B1C83130130A800290AC6297F
:100388000310A80DFF3E031DC42928080005031902
:10039800D029AC01AC0AD129AC012C080800831281
:1003A8000313A900A80001300310A80DFF3E031095
:1003B800031DD929280D103E8400831780170800D3
:1003C80083120313AA0084008313801FFF29620885
:1003D800023E840083170008A900033E8400000839
:1003E8002A060319FB292908023E8400EF29290857
:1003F800033E840080012A08840083138001800A58
:10040800080083120313A9006208033E84008317BF
:10041800000829060319142A290884008313800375
:10042800290884008313801B1B2AA801232A620839
:10043800033E8400290883178000A801A80A280819
:100448000800B7003408031D6A2A2030AD000030C8
:1004580024230A128A110A30A80037089C230A129A
:100468008A1133230A128A11AD00033024230A1299
:100478008A11A33083120313B6005430B500B50BAC
:10048800432AB60B432A0000103083120313AD0031
:10049800003024230A128A110A30A8003708812361
:1004A8000A128A1133230A128A11AD000330242359
:1004B8000A128A11A33083120313B6005430B50010
:1004C800B50B642AB60B642A00000800340B080038
:1004D8006430A800A9018316031762088312031366
:1004E800AB0083160317610883120313AA00B8230D
:1004F8000A128A112908831603176002031D8A2A23
:10050800831203132808831603175F022030031889
:10051800C12A83120313AD00003024230A128A1162
:100528000A30A80037089C230A128A1133230A12BA
:100538008A11AD00033024230A128A11A3308312D2
:100548000313B6005430B500B50BA82AB60BA82A79
:100558000000103083120313AD00003024230A1268
:100568008A110A30A800370881230A128A11332316
:100578000A128A11AD000330E22A83120313AD0078
:10058800003024230A128A110330AD0124230A12F1
:100598008A11A33083120313B6005430B500B50B8B
:1005A800D32AB60BD32A0000103083120313AD00F0
:1005B800003024230A128A110330AD0124230A12C1
:1005C8008A11A33083120313B6005430B500B50B5B
:1005D800EB2AB60BEB2A0000323083120313A80073
:1005E800A90183160317620883120313AB0083164D
:1005F8000317610883120313AA00B8230A128A1189
:100608002908B0002808AF00831603175F08013EC9
:1006180083120313B1008316031760080318013E01
:10062800003E83120313B2006D24300883160317AB
:10063800E000831203132F0883160317DF00080056
:10064800AE00AF000530B001AF070318B00A2F089D
:1006580084008317301C83132D0880000800AA002B
:10066800462B3F3406345B344F3466346D347D3466
:1006780007347F346F3477347C3458345E347934BB
:10068800713400342A08A800A9012908003A03197E
:100698004E2B452B2808003A0319352B013A03192C
:1006A800362B033A0319372B013A0319382B073A2B
:1006B8000319392B013A03193A2B033A03193B2B37
:1006C800013A03193C2B0F3A03193D2B013A031940
:1006D8003E2B033A03193F2B013A0319402B073AE3
:1006E8000319412B013A0319422B033A0319432BEF
:1006F800013A0319442B452B0800A900AB0128082F
:1007080003199A2BAA01AA0AA81B8D2B0310A80D5E
:10071800872B0310AB0D28082902031C972B2808E8
:10072800A9022B140310A80CAA0B8D2B2B08080068
:10073800AA000830AB00AC012A08A9000730031052
:10074800A90CFF3E0310031DA42B2C0D2904AC009B
:100758000310AA0D28082C02031CB42B2808AC028D
:10076800AB0BA02B2C080800AC01AD01280829040C
:100778000319DD2BAE01AE0AA91BC62B0310A80D69
:10078800A90DBF2B0310AC0DAD0D29082B02031DBD
:10079800CF2B28082A02031CD92B2808AA022908CB
:1007A800031CAB03AB022C140310A90CA80CAE0B52
:1007B800C62B2D08A9002C08A8000800B100310894
:1007C800B0000030ED230A128A11003A03190034F0
:1007D800E32B01309F051F161F151F19F12B300839
:1007E80084001E08AB00AA0183161E088312AA07FC
:1007F8000318AB0A0230A800A9010A168A15D122EB
:100808002808831380000034AC0003102C0D903EA0
:10081800840083170008AA000530AB01AA07031853
:10082800AB0A280B2E2C0130A90003102C0D913E89
:100838008400000A212C0310A90DFF3E031D1F2C64
:100848002908FF002A08840083172B1C83137F08BC
:10085800800408002808031D08000130A9000310BF
:100868002C0D913E8400000A3B2C0310A90DFF3E7D
:10087800031D392C2908FF3AFF002A088400831732
:100888002B1C83137F0880050800AB0003102B0D79
:10089800903E840083170008A9000530AA01A90723
:1008A8000318AA0A0130A80003102B0D913E8400FA
:1008B800000A602C0310A80DFF3E031D5E2C2808BB
:1008C800FF002908840083172A1C83137F088006E9
:1008D80008002F08300403198C2CB301B30AB01B8D
:1008E800792C0310AF0DB00D722C30083202031DA5
:1008F8007F2C2F083102031C882C2F08B1023008E6
:10090800031CB203B2020310B00CAF0CB30B792C6A
:100918003208B0003108AF0008004C088316A00068
:100928008030A005831203104C0D8316A200831299
:10093800CB1FA02C83162214831622080319AE2C71
:10094800220FAB2C8312C901CA01CB01CC0183123F
:10095800CB17B32C8312C901CA01CB01CC015008B3
:1009680080398316A00683120310500D8316A10048
:100978008312CF1FC12C8316211483162108031953
:10098800CF2C210FCC2C8312CD01CE01CF01D00169
:100998008312CF17D42C8312CD01CE01CF01D00101
:1009A80083162108031D2208031DE02C8312C901A8
:1009B800CA01CB01CC01080083124908A8004F08DE
:1009C80017270A128A1129088316AC0083122808EF
:1009D8008316AB00A300A401A501A6012C08A7005B
:1009E800A801A901AA0183124A08A8004E081727DE
:1009F8000A128A1129088316AC0083122808831664
:100A0800AB00A30701300318A4070318A5070318B0
:100A1800A6072C08A70701300318A8070318A90779
:100A28000318AA0783124B08A8004D0817270A12B3
:100A38008A1129088316AC00831228088316AB0094
:100A4800A30701300318A4070318A5070318A6076E
:100A58002C08A70701300318A8070318A9070318CB
:100A6800AA072508A6002408A5002308A400A301B6
:100A780083124A08A8004D0817270A128A11290864
:100A88008316AC00831228088316AB008312D100AA
:100A980083162C088312D200D301D401510883167F
:100AA800A3078312520803110318013E8316031D7E
:100AB800A4078312530803110318013E8316031D6C
:100AC800A5078312540803110318013E8316031D5A
:100AD800A60783124908A8004E0817270A128A1188
:100AE80029088316AC00831228088316AB008312EA
:100AF800D10083162C088312D200D301D4015108E7
:100B08008316A3078312520803110318013E8316A4
:100B1800031DA4078312530803110318013E83160B
:100B2800031DA5078312540803110318013E8316F9
:100B3800031DA60783162508A6002408A500230878
:100B4800A400A30183124908A8004D0817270A1218
:100B58008A1129088316AC00831228088316AB0073
:100B68008312D10083162C088312D200D301D4013A
:100B780051088316A3078312520803110318013E74
:100B88008316031DA4078312530803110318013E9B
:100B98008316031DA5078312540803110318013E89
:100BA8008316031DA60783124A08A8004F081727B3
:100BB8000A128A1129088316AC00831228088316A2
:100BC800AB008312D10083162C088312D200D30104
:100BD800D40151088316A70783125208031103187A
:100BE800013E8316031DA807831253080311031837
:100BF800013E8316031DA907831254080311031825
:100C0800013E8316031DAA0783124B08A8004E084D
:100C180017270A128A1129088316AC00831228089C
:100C28008316AB008312D10083162C088312D200DE
:100C3800D301D40151088316A70783125208031160
:100C48000318013E8316031DA807831253080311D6
:100C58000318013E8316031DA907831254080311C4
:100C68000318013E8316031DAA0783124B08A80028
:100C78004F0817270A128A1129088316AC00831215
:100C880028088316AB008312D10083162C08831220
:100C9800D200D301D4015308D4005208D30051081C
:100CA800D200D10151088316A707831252080311F5
:100CB8000318013E8316031DA80783125308031166
:100CC8000318013E8316031DA90783125408031154
:100CD8000318013E8316031DAA0783162608A707D3
:100CE80001300318A8070318A9070318AA0725083D
:100CF800A6002408A5002308A400A3012208AB002D
:100D0800AC012108AB070318AC0A8230AB07031CFF
:100D1800AC03A91B9D2E0310A70DA80DA90DAA0DA4
:100D2800A61B2714FF300310A30DA40DA50DA60DB7
:100D38008A2EA101A61FBB2E23088312D100831679
:100D480024088312D200831625088312D3007F302B
:100D5800831626058312D400530452045104031D3C
:100D6800B82E8316271CBB2E8316A101A10A2108C1
:100D78000319CF2EA70A0319A80A0319A90A0319E8
:100D8800AA0A2A1CCF2E2A0DAA0CA90CA80CA70C5B
:100D9800AB0A0319AC0A2C08803AFF0080307F02A6
:100DA800031DD82EFF302B02031CE32E7F30831641
:100DB8000313AA008030A900A801A701052F8316F4
:100DC80003132C08803AFF0080307F02031DEE2EAB
:100DD80001302B020318F82E83160313A701A8016C
:100DE800A901AA01A001052F831603132B08A2004D
:100DF8007F30A9050030AA012218A9170310220C78
:100E0800AA002008AA042A088312CC0083162908FD
:100E18008312CB00831628088312CA00831627087A
:100E28008312C9000800AF00AB01AC012808AD006F
:100E3800AE012F1C252F2D08AB070318AC0A2E086E
:100E4800AC070310AD0DAE0D0310AF0C2F08031D3A
:100E58001D2F2C08A9002B08A80008008B1363304D
:100E6800F200F301F30A831203136108A1270A129F
:100E78008A1183126308031D432F3C30E3000130BD
:100E88000A168A119F250A128A118B1783120313D7
:100E9800322FF1007108031D0800EC270A128A118D
:100EA800911583128C1D552F8C11EC277008840026
:100EB80083121308831380000800F800F5270A122C
:100EC8008A11A030DD270A128A11003A0319702FFF
:100ED800DA270A128A11652F7830F000003090273F
:100EE8000A128A11F601F7017308F400F501750872
:100EF8007702031D812F7408760203188E2F72085B
:100F0800F000003090270A128A11F20AF60A031933
:100F1800F70A782FFD270800F1007108031D080063
:100F2800EC270A128A1170088400831300088312C0
:100F380093008C1D9D2F8C110800F800F5270A12CC
:100F48008A11A030DD270A128A11003A0319B02F3E
:100F5800DA270A128A11A52F7830F000003090277E
:100F68000A128A11DA270A128A11A130DD270A1219
:100F78008A11F601F7017308F400F5017508770284
:100F8800031DC82F740876020318D82F7208F000C2
:100F980000304D270A128A11F20AF8270A128A111C
:100FA800F60A0319F70ABF2FFD270800EC2791144A
:100FB8000800F000EC270A128A11700883129300C7
:100FC8008C1DE42F8C1100308316111B0130080092
:100FD800831603131419EC2F11081F39031908007D
:100FE800EC2FEC271114080083169112EC27111628
:100FF8000800EC27111508007E088A007F08820087
:1010080000200A128A158000840A04087D06031944
:101018000034FF0A0319FE0A04284C088312AB00A7
:1010280083164B088312AA0083164A088312A90064
:10103800831649088312A800AC01AD01AE01AF01C7
:10104800A1260A128A1503182F288316C901CA0176
:10105800CB01CC01080083164C088312B900831613
:101068004B088312B80083164A088312B700831608
:1010780049088312B600BA01BB01BC01BD01D824DE
:101088000A128A15031C4E288316C901CA01CB010E
:10109800CC010800BF308316B0008030AF0040306C
:1010A800AE01AD018312CC005D30CB01CA01C9018C
:1010B800C60083164C088312C50083164B0883129A
:1010C800C40083164A088312C30083164908831292
:1010D800C2000A168A159C260A128A154508D000ED
:1010E8004408CF004308CE004208CD000A128A11F6
:1010F80091240A128A154C088316B40083124B08EF
:101108008316B30083124A088316B2008312490873
:101118008316B100A0210A128A153008CC002F08C6
:10112800CB002E08CA002D08C900FF308312DD0746
:10113800031CDE0383164C08BC004B08BB004A089E
:10114800BA004908B9002930BD000830BE00BF0107
:10115800F9200A128A153C08CC003B08CB003A0853
:10116800CA003908C9004C08B0004B08AF004A084B
:10117800AE004908AD003F308312CC003130CB00BF
:101188007230CA001830C9005D08A8005E08A900BE
:101198000030A91BFF30AA00AB00013018272B082C
:1011A800D0002A08CF002908CE002808CD000A124E
:1011B8008A1191240A128A154C088316B4008312E6
:1011C8004B088316B30083124A088316B2008312B1
:1011D80049088316B100A0213008CC002F08CB00A5
:1011E8002E08CA002D08C90008003E08C0000130BA
:1011F8000310C00DFF3E0310031DFD28400D3D07E1
:1012080084000A168A1500200A128A15C1000A16D7
:101218008A1500200A128A15C2000A168A150020AB
:101228000A128A15C3000A168A1500200A128A159E
:10123800C4004408C8004308C7004208C600410863
:10124800C5003E083F0403199729FF30BE07031C59
:10125800BF033E08C00001300310C00DFF3E03105D
:10126800031D3129400D3D0784000A168A15002008
:101278000A128A15C1000A168A1500200A128A1550
:10128800C2000A168A1500200A128A15C3000A1617
:101298008A1500200A128A15C4004408B0004308C1
:1012A800AF004208AE004108AD0048088312CC00E8
:1012B800831647088312CB00831646088312CA0098
:1012C800831645088312C90083163C088312D00090
:1012D80083163B088312CF0083163A088312CE0088
:1012E800831639088312CD000A128A1191240A1232
:1012F8008A154C088316B40083124B088316B30072
:1013080083124A088316B200831249088316B10073
:10131800A0210A128A153008C8002F08C7002E0815
:10132800C6002D0824294808BC004708BB00460809
:10133800BA004508B90008003008B5008030B50586
:101348000310300DB700AF1B371437080319B52940
:10135800370FB229AD01AE01AF01B001AF17B0012F
:10136800B929AD01AE01AF01B0013408B600803033
:10137800B60536083506031D35170310340DB600BB
:10138800B31B361436080319D229360FCF29B101F9
:10139800B201B301B401B317B401D629B101B20146
:1013A800B301B401370836020318FC29351FDE29BA
:1013B8008030B5063708B8003608B7003808B600D8
:1013C8002D08B8003108AD003808B1002E08B80063
:1013D8003208AE003808B2002F08B8003308AF0052
:1013E8003808B3003008B8003408B0003808B40032
:1013F800B80136088312D500D6015608D8008316DE
:10140800370883125502D700031CD8035808803ABE
:10141800FF0080307F02031D132A1A305702031C75
:10142800392A8316031330082F042E042D040319B8
:101438001F2A0130202A0030B800AD01AE01AF01EB
:10144800B0013608B7003F2A381C2F2A0310380C81
:101458000138B800312A0310B80C2D18B817300D10
:10146800B00CAF0CAE0CAD0CB70A831603133608DC
:101478003702031C282A351B712A3708031D492AFD
:10148800AD01AE01AF01B00108003108AD07320867
:1014980003110318013E031DAE0733080311031897
:1014A800013E031DAF07340803110318013E031D55
:1014B800B007301C102B381C662A0310380C013872
:1014C800B800682A0310B80C2D18B817300DB00CE6
:1014D800AF0CAE0CAD0CB70A102B3008803AFF00E9
:1014E8003408803A7F02031D832A33082F02031D24
:1014F800832A32082E02031D832A31082D0203187D
:10150800E22AFF308312D500D600D700D800831610
:1015180031088312D900831632088312DA00831641
:1015280033088312DB00831634088312DC00831629
:101538002D088312D90283162E08031C2E0FA52A04
:10154800A72A8312DA0283162F08031C2F0FAD2A4D
:10155800AF2A8312DB0283163008031C300FB52A2A
:10156800B72A8312DC0283125908D5075A080318D0
:101578005A0FD6075B0803185B0FD7075C080318D8
:101588005C0AD80758088316B000831257088316D8
:10159800AF00831256088316AE00831255088316CF
:1015A800AD008030B506B809B80FF02AAD0A0319A6
:1015B800AE0A0319AF0A0319B00AF02A3108AD02BE
:1015C8003208031C320FAE023308031C330FAF027C
:1015D8003408031C340FB00230082F042E042D04E5
:1015E800031D0E2B3808031D0E2BAD01AE01AF01F4
:1015F800B00108000310AD0DAE0DAF0DB00DB81B56
:101608002D14381C092B03140A2B0310B80D3708A6
:10161800031DB703AF1FFE2AB601B81F1B2B3808DE
:101628007F3903192D18192B1B2BB601B60A36085A
:1016380003192E2BAD0A0319AE0A0319AF0A0319B1
:10164800B00A301C2E2B300DB00CAF0CAE0CAD0C0C
:10165800370FB70A370A031D3708031D3A2BAD01A8
:10166800AE01AF01B00137080319B501371C3E2B95
:10167800AF173F2BAF130310370CB000B51BB017D3
:10168800080083120317CB01831603136A08831219
:10169800B900831669088312B80083166808831294
:1016A800B700831667088312B600BA01BB01BC01F4
:1016B800BD01D8240A128A15031C7D2BA801A90193
:1016C800AA01AB0183166E088312AF0083166D085A
:1016D8008312AE0083166C088312AD0083166B0864
:1016E8008312AC00A1268316E701E801E901EA01AB
:1016F800080083166E088312B90083166D088312DA
:10170800B80083166C088312B70083166B0883121F
:10171800B600BA01BB01BC01BD01D8240A128A1562
:10172800031C9F2B3F308316EA008030E90000300D
:10173800E801E701080083166A088312AB008316E4
:1017480069088312AA00831668088312A900831601
:1017580067088312A800AC01AD01AE01AF01A12654
:101768000A128A150318392C83166E08CD006D08E5
:10177800CC006C08CB006B08CA008A270A128A15AD
:1017880083164D0883120317CF00831603134C08E2
:1017980083120317CE00831603134B088312031713
:1017A800CD00831603134A0883120317CC004F0891
:1017B8000313AB0003174E080313AA0003174D08C1
:1017C8000313A90003174C080313A80000301827B7
:1017D8000A128A152B08B9002A08B8002908B70088
:1017E8002808B60083166E088312BD0083166D089C
:1017F8008312BC0083166C088312BB0083166B0827
:101808008312BA00D8240A128A150318112C8316D9
:10181800E701E801E901EA01080003174C08CB00D9
:101828000130CB05831603136A088312AB008316B5
:1018380069088312AA00831668088312A900831610
:1018480067088312A8000F270A128A152B08831627
:10185800EA0083122A088316E900831229088316EE
:10186800E800831228088316E70083166A08CC006C
:101878006908CB006808CA006708C90011200A1265
:101888008A154C0883120317C600831603134B08E6
:1018980083120317C500831603134A08831203171C
:1018A800C40083160313490883120317C300831661
:1018B80003136E088312CC0083166D088312CB00C5
:1018C80083166C088312CA0083166B088312C9003A
:1018D800031746080313D000031745080313CF0066
:1018E800031744080313CE00031743080313CD005E
:1018F8000A128A1191240A128A154C080317CA0081
:1019080003134B080317C90003134A080317C80039
:10191800031349080317C7004A0883160313DF0097
:1019280083120317490883160313DE008312031773
:10193800480883160313DD0083120317470883162C
:101948000313DC000E250A128A155F08EA005E08F8
:10195800E9005D08E8005C08E700831203174B08FC
:1019680003190800831603136A088312AB00831651
:1019780069088312AA00831668088312A9008316CF
:1019880067088312A8000F272B088316EA00831222
:101998002A088316E900831229088316E8008312AF
:1019A80028088316E70008008030BE01BF0138050B
:1019B800C0007F303905C10040043F043E04031DC8
:1019C800E92CB601B701B801B9018030BE01BF01E9
:1019D8003C05C0007F303D05C10040043F043E0483
:1019E800031DFA2CBA01BB01BC01BD013D08390633
:1019F800031D082D3C083806031D082D3B08370633
:101A0800031D082D3A08360603190C2D031008008B
:101A1800031408005F088312B90083165E08831256
:101A2800B80083165D088312B70083165C0883121A
:101A3800B600BA01BB01BC01BD01D8240A128A153F
:101A4800031C2F2D3F308316DF008030DE0000306E
:101A5800DD01DC0108004430AB003130AA007230EF
:101A6800A9001830A80083165F088312AF008316F8
:101A78005E088312AE0083165D088312AD008316DC
:101A88005C088312AC00A1260A128A150318542D8B
:101A98007F308316DF00DE00FF30DD00DC00080049
:101AA80083165F088312AB0083165E088312AA00B0
:101AB80083165D088312A90083165C088312A800A8
:101AC800C430AF003A30AE004830AD008730AC00CB
:101AD800A1260A128A150318772D8316DC01DD0169
:101AE800DE01DF01080083165F088312AB0083164E
:101AF8005E088312AA0083165D088312A900831664
:101B08005C088312A800AC01AD01AE01AF01A126AB
:101B18000A128A150318922D0130932D003083166E
:101B2800E60066080319B92D5F088312AB00831617
:101B38005E088312AA0083165D088312A900831623
:101B48005C088312A8000F270A128A152B0883162F
:101B5800DF0083122A088316DE0083122908831601
:101B6800DD00831228088316DC003F308312CC0086
:101B7800B830CB00AA30CA003B30C90083165F08D2
:101B88008312D00083165E088312CF0083165D0887
:101B98008312CE0083165C088312CD000A128A11C4
:101BA80091240A128A154C088316DF0083124B0809
:101BB8008316DE0083124A088316DD008312490863
:101BC8008316DC005F08D5005E08D4005D08D300EA
:101BD8005C08D2000A168A15D8250A128A155508F3
:101BE800E3005408E2005308E1005208E0006308EB
:101BF800CD006208CC006108CB006008CA008A27C3
:101C08000A128A1583164B08E5004A08E400831275
:101C1800A800831665088312A9000030A91BFF30AD
:101C2800AA00AB00013018270A128A152B08831660
:101C3800C50083122A088316C40083122908831654
:101C4800C300831228088316C2005F08C9005E0813
:101C5800C8005D08C7005C08C600E4270A128A1598
:101C68004508DF004408DE004308DD004208DC00C8
:101C78005F08BC005E08BB005D08BA005C08B900DC
:101C88000130BD000930BE00BF01F9203C08CC007E
:101C98003B08CB003A08CA003908C9006508CE00DD
:101CA8006408CD000A168A1572240A128A154C088F
:101CB800DF004B08DE004A08DD004908DC00660842
:101CC800031908005F088312B90083165E0883129F
:101CD800B80083165D088312B70083165C08831268
:101CE800B6007F30BD00BC00FF30BB00BA00D8246E
:101CF8000A128A15031C862E8316DC01DD01DE011B
:101D0800DF01080083165F08B0005E08AF005D08B9
:101D1800AE005C08AD003F30B4008030B300B201C3
:101D2800B1010A168A11CF223008DF002F08DE0021
:101D38002E08DD002D08DC0008008030B001B1015C
:101D48002A05B2007F302B05B30032043104300479
:101D5800031DB22EA801A901AA01AB018030B00170
:101D6800B1012E05B2007F302F05B30032043104D3
:101D78003004031DC32EAC01AD01AE01AF01AB1F92
:101D8800E02E8030B001B101B201B3002808B002E2
:101D98002908031C290FB1022A08031C2A0FB202C2
:101DA8002B08031C2B0FB3023308AB003208AA0020
:101DB8003108A9003008A800AF1FFD2E8030B001FF
:101DC800B101B201B3002C08B0022D08031C2D0F7D
:101DD800B1022E08031C2E0FB2022F08031C2F0F6E
:101DE800B3023308AF003208AE003108AD00300846
:101DF800AC008030AB06AF062F082B02031D08008D
:101E08002E082A02031D08002D082902031D0800B8
:101E18002C08280208002B082A042904280403197E
:101E280008008030AB060800B0003008031DAB1F67
:101E38002D2F2809B2002909B3002A09B4002B095B
:101E4800B500B20A0319B30A0319B40A0319B50A8B
:101E5800352F2B08B5002A08B4002908B300280834
:101E6800B2002B082A0429042804031D402FA801C6
:101E7800A901AA01AB0108009630B100FE30350572
:101E880003195A2FB10A0310B50CB40CB30CB20CD9
:101E9800422FB10AB20A0319B30A0319B40A031983
:101EA800B50A0310B50CB40CB30CB20CFF303505F1
:101EB8000319692F4D2F02303102031C6B2FB10318
:101EC8000310B20DB30DB40DB50DB41F5F2F311C47
:101ED800B4130310B10C3108AF00AE01AD01AC0171
:101EE8002C08B2042D08B3042E08B4042F08B50436
:101EF8003008031DAB1F812FB5173508AB00340818
:101F0800AA003308A9003208A800080003104C0DE5
:101F18004D0D8312DE005E08031D982F8316CA013B
:101F2800CB01CC01CD01080083164A08CE004B082E
:101F3800CF004C08D0004D08D1001F300310D10C41
:101F4800D00CCF0CCE0CFF3E031DA22F4E088312DF
:101F5800DD0083169630CC17CD018312DE02DE1F1A
:101F6800C42F5E08803A973E031C922F03108316F5
:101F7800CD0CCC0CCB0CCA0C8312DE0FBA2FD42F8D
:101F880020305E020318922F5E080319D42F031025
:101F98008316CA0DCB0DCC0DCD0D8312DE03C82FD1
:101FA8005D08031908008316CA09CB09CC09CD09B5
:101FB800CA0A0319CB0A0319CC0A0319CD0A080067
:101FC8008030C5064908B0004808AF004708AE0091
:101FD8004608AD004508B4004408B3004308B20001
:101FE8004208B100A0213008C5002F08C4002E08FF
:101FF800C3002D08C200080005340134013401343F
:102008000334033419341634133410340D340A34B9
:10201800073404340134B000262883120313B700B0
:10202800BE30D2208312370884000008FF008401E4
:10203800831380000800AE000B210A168A112E08AF
:10204800033E0B29AF009F0183169F01D0300B215F
:102058000A168A112F08840083170008AE0003109F
:10206800AE0D0310AE0D03102E0D9F042F08023E77
:10207800840000080339AE00AE0CAE0C2E0CC0393B
:102088009F042F08023E8400000E403983169F04E7
:1020980083122F0A84000008AE0006300310AE0D2C
:1020A800FF3E0310031D53282E0D83169F049F1413
:1020B80083121F14080083120313B40084008317CB
:1020C800000883160317AE00AE30B4200A168A1132
:1020D80083120313B201B3013408043E84003308A9
:1020E800803AB10080303102031D7D288317000833
:1020F80032020318A62883120313340A84008317B4
:102108000008FF00320832073207B13E84007F081A
:10211800800032083407B100023E84000008FF0046
:10212800320832073207B23E84007F088000320846
:1021380032073207B13E0B210A168A11B20A031977
:10214800B30A7028831203133408053E84008317EA
:10215800000883160317E100840A0008E20008005B
:1021680083120313B000AE01AF01831203133008CA
:102178000B210A168A11300A84008317800AAE0AD6
:102188000319AF0A2F08803AFF0080307F02031D31
:10219800CF2808302E0203180800B928B600C4302A
:1021A8000B210A168A11C7300B210A168A11360824
:1021B800053E8400831700080F399404941683168B
:1021C80091018312360A84000008A800840A0008D6
:1021D800A900840A0008AA00840A0008AB0002309B
:1021E800B5000310A80DA90DAA0DAB0DB50BF52868
:1021F8000030AF009830AE009630AD008030AC00B3
:102208006C212808FF3E831693009401080083126E
:102218000313AD00840083170008AB008530AC01C0
:10222800AB070318AC0A2D0884000008A900053084
:10223800AA01A9070318AA0A2D08023E8400000B68
:1022480051290130A8002D0A8400000A2D29031005
:10225800A80DFF3E031D2B292808FF3AFF002B0875
:10226800840083172C1C83137F0880050130A80085
:102278002D0A84008317000A43290310A80DFF3E86
:10228800031D41292808FF3AFF0029088400831705
:102298002A1C83137F08800508002D08023E84004D
:1022A8000008031D08000130A8002D0A8400000A58
:1022B8005F290310A80DFF3E031D5D292808FF00B4
:1022C8002B08840083172C1C83137F0880040800C4
:1022D800B001B101B201B3012B082A042904280472
:1022E8000319AB29B401B40AAB1B80290310A80D4C
:1022F800A90DAA0DAB0D77290310B00DB10DB20DC4
:10230800B30D2B082F02031D93292A082E02031D43
:10231800932929082D02031D932928082C02031C40
:10232800A5292808AC022908031C290FAD022A0890
:10233800031C2A0FAE022B08031C2B0FAF0230140C
:102348000310AB0CAA0CA90CA80CB40B80293308F9
:10235800AB003208AA003108A9003008A80008001C
:1023680083160317ED00840083170008E700840A2A
:102378000008E80000306802283003196702031CCF
:10238800CF2983120313900183164030EB01EC012F
:10239800ED01EE01172A6D0884000008E700840AA1
:1023A8000008E80000306802153003196702031CB2
:1023B800E82910308312031390003F308316EE0093
:1023C8008030ED004030152A6D0884000008E700D1
:1023D800840A0008E800003068020B30031967021D
:1023E800031CFF292030831203139000403083160A
:1023F800EE00ED01152A6D0884000008E700840A44
:102408000008E80000306802063003196702031C60
:10241800B92A303083120313900040308316EE003F
:10242800ED00EC01EB01EA00E901E801E7010A121D
:102438008A1545230A168A11831603136A08031797
:10244800EC00031369080317EB000313680803176C
:10245800EA00031367080317E90047300313C900AC
:102468007F30C800FF30C7004B30C601B4001830B9
:10247800B3009630B2008030B10003176D088400B5
:1024880083170008E700840A0008E8000310E70D36
:10249800E80D0310E70DE80D670883120313A80081
:1024A80083160317680883120313A9000030AA01D2
:1024B800AB010A128A1518270A168A112B08D000B0
:1024C8002A08CF002908CE002808CD008316031754
:1024D8006C0883120313CC00831603176B0883124E
:1024E8000313CB00831603176A0883120313CA0069
:1024F80083160317690883120313C9000A128A1185
:1025080091240A168A114C088316B00083124B08CE
:102518008316AF0083124A088316AE008312490857
:102528008316AD00CF223008C5002F08C4002E083E
:10253800C3002D08C2000A128A15E4270A168A1158
:102548004508CD004408CC004308CB004208CA0027
:102558000A128A158A270A168A1183164B08031746
:10256800E40003134A080317E30064088312031303
:102578008F00831603176308831203138E00101449
:102588001F30A8000030F823831603176D08831244
:102598000313DF0008003408B9008030B9050310C0
:1025A800340DC000B31B401440080319E42A400F3F
:1025B800E12AB101B201B301B401B317B401E82AA9
:1025C800B101B201B301B40130088039B906031072
:1025D800300DC100AF1B411441080319FC2A410FFB
:1025E800F92AAD01AE01AF01B001AF17B001002B60
:1025F800AD01AE01AF01B00130082F042E042D0447
:10260800031D192B8030B101B201B301B401B30429
:102618007F30B4043908B4043408B0003308AF007C
:102628003208AE003108AD0008004008031D212B18
:10263800AD01AE01AF01B00108004008BA00BB010E
:102648004108BA02031CBB037F30BA070318BB0A50
:102658003408B8003308B7003208B6003108B500AE
:10266800B101B201B301B401BC01BD01BE01BF019A
:10267800C1011A3041020318762B41080319552B62
:102688000310B50DB60DB70DB80D0310B10DB20D91
:10269800B30DB40DBF1B31140310BC0DBD0DBE0D21
:1026A800BF0D30083802031D632B2F083702031DA6
:1026B800632B2E083602031D632B2D083502031CDD
:1026C800742B3F172D08B5022E08031C2E0FB602D7
:1026D8002F08031C2F0FB7023008031C300FB80255
:1026E800C10A3D2B3808370436043504031D3C1451
:1026F800B31B8F2B0310B10DB20DB30DB40DBF1B5F
:102708003114FF300310BC0DBD0DBE0DBF0DBA074F
:10271800031CBB037C2BC101BF1FAD2B3C088312DC
:10272800D50083163D088312D60083163E0883120F
:10273800D7007F3083163F058312D800570456040C
:102748005504031DAA2B8316311CAD2B8316C1011A
:10275800C10A41080319C12BB10A0319B20A0319A6
:10276800B30A0319B40A341CC12B340DB40CB30CCE
:10277800B20CB10CBA0A0319BB0A3B08803AFF0035
:1027880080307F02031DCA2BFF303A02031CD52B71
:10279800FF3083160313BA00BB01B101B201B301C4
:1027A800B401831603133B08803AFF0080307F0290
:1027B800031DE02B01303A020318EB2B8316031399
:1027C800BA01BB01B101B201B301B401B901831669
:1027D80003133A08C000401CF32BB317F42BB313B0
:1027E8000310400CB4000E2BA9002908031D080093
:1027F8000C1083160C140B178B17831228088316DA
:10280800EF0008008B13653067270A168A11003A13
:10281800031D192C6430C8270A168A11003A031DB3
:102828000E2C653046270A168A118B17831203135C
:10283800062C8B13663067270A168A11003A031D87
:102848002B2CFC01FC0A6308B7250A168A1166308E
:1028580046270A168A118B17831203131D2C8B1314
:10286800663067270A168A11003A031D642C003067
:10287800831603176602963003196502031C602C41
:1028880083120313E01C602C6330F200F301F30A97
:1028980061080A128A1161270A168A112130FA0082
:1028A8007630F900F90B562CFA0B562C000005303F
:1028B8009F250A168A11642C663046270A168A1143
:1028C8008B1783120313332C8B13653067270A1673
:1028D8008A11003A031D752CFC016408B7250A16F5
:1028E8008A11653046270A168A1183120313601D60
:1028F8009D2C600CFF00FF0C7F0C0F39FF00FF0AB6
:10290800FF0DFF0DFF0D60087F0687397F06E00089
:10291800600CA200A20C220C0F390A3A031DA32C4A
:1029280003300A168A1542220A168A118730E005F2
:10293800A32C0330F001F00A87270A168A118B1797
:1029480083120313682C8B13013073250A168A111E
:10295800003A031DBD2C013073250A168A11003A6E
:102968000319AF2C00309F250A168A11831203130E
:1029780060148B1783120313A72C8B130030732555
:102988000A168A11003A0319D02C023073250A1648
:102998008A11003A031DE22C003073250A168A11A9
:1029A800003A0319D02C023073250A168A11003A0E
:1029B8000319D02C02309F250A168A118B1783120F
:1029C8000313C12C8B13663067270A168A11003A45
:1029D800031D2B2D003073250A168A11003A031D9A
:1029E8000E2D2830831203136302031C0E2D0030B2
:1029F80073250A168A11003A0319FB2C0530831235
:102A08000313E30283160317E501E6018312031398
:102A1800E0142B2D023073250A168A11003A031D83
:102A2800272D47308312031363020318272D023022
:102A380073250A168A11003A03191B2D05308312D3
:102A48000313E307062D663046270A168A118B17EB
:102A580083120313E62C83160317E50A0319E60A03
:102A6800013073250A168A11003A031D702D83124E
:102A78000313601C702D013073250A168A11003A61
:102A880003193F2DAE250A168A11F2270A168A1154
:102A9800EE270A168A110330F00187270A168A11D1
:102AA8008312031387306010E0106011E0050130D5
:102AB80073250A168A11003A031D5B2D0130732510
:102AC8000A168A11003A0319622D8312031360143F
:102AD800F6270A168A115B2D0A168A15662AF5004A
:102AE800F4010310750D903E840083170008F2006E
:102AF8000530F301F2070318F30A0310750D913E30
:102B080084000008F100720884008317731C831383
:102B18000130F000710A922D0310F00DFF3E031DE5
:102B2800902D7008000503199C2DF401F40A9D2DC1
:102B3800F40174080800F100F00001300310F00DF2
:102B4800FF3E0310031DA32D700D103E8400831754
:102B5800801708000030F50188260A168A1103300C
:102B6800F50188260800FD007C08031DFA2D203099
:102B7800F500003088260A168A110A30F0007D0810
:102B880000270A168A1197260A168A11F5000330BB
:102B980088260A168A11A33083120313A100543021
:102BA800A000A00BD52DA10BD52D00001030F500ED
:102BB800003088260A168A110A30F0007D08E526BA
:102BC8000A168A1197260A168A11F50003308826F4
:102BD8000A168A11A33083120313A1005430A000EF
:102BE800A00BF42DA10BF42D000008007C0B0800AD
:102BF8006430F000F101831603176208F3006108DE
:102C0800F2001C270A168A1171086002031D0E2E95
:102C180070085F022030F50000300318412E882626
:102C28000A168A110A30F0007D0800270A168A1150
:102C380097260A168A11F500033088260A168A1183
:102C4800A33083120313A1005430A000A00B2A2E36
:102C5800A10B2A2E00001030F500003088260A1635
:102C68008A110A30F0007D08E5260A168A1197268F
:102C78000A168A11F50003305C2E88260A168A1176
:102C88000330F50188260A168A11A330831203132C
:102C9800A1005430A000A00B4F2EA10B4F2E000016
:102CA8001030F500003088260A168A110330F50125
:102CB80088260A168A11A33083120313A100543000
:102CC800A000A00B652EA10B652E00003230F0008D
:102CD800F101831603176208F3006108F2001C274C
:102CE8007108F8007008F7005F08013EF9006008F5
:102CF8000318013E003EFA000A168A151E227808BB
:102D0800E0007708DF000800F600F7000530F8015A
:102D1800F7070318F80A770884008317781C8313C9
:102D2800750880000800F200AA2E3F3406345B3490
:102D38004F3466346D347D3407347F346F347734E0
:102D48007C3458345E347934713400347208F000BD
:102D5800F1017108003A0319B22EA92E7008003A41
:102D68000319992E013A03199A2E033A03199B2E37
:102D7800013A03199C2E073A03199D2E013A0319AB
:102D88009E2E033A03199F2E013A0319A02E0F3ADB
:102D98000319A12E013A0319A22E033A0319A32EEF
:102DA800013A0319A42E073A0319A52E013A03196B
:102DB800A62E033A0319A72E013A0319A82EA92E05
:102DC8000800F100F30170080319FE2EF201F20A5F
:102DD800F01BF12E0310F00DEB2E0310F30D70080D
:102DE8007102031CFB2E7008F10273140310F00C1F
:102DF800F20BF12E73080800F2000830F300F4011A
:102E08007208F10007300310F10CFF3E0310031D98
:102E1800082F740D7104F4000310F20D7008740289
:102E2800031C182F7008F402F30B042F7408080011
:102E3800F401F501700871040319412FF601F60A2F
:102E4800F11B2A2F0310F00DF10D232F0310F40DA1
:102E5800F50D71087302031D332F70087202031CED
:102E68003D2F7008F2027108031CF303F302741477
:102E78000310F10CF00CF60B2A2F7508F1007408FA
:102E8800F0000800F10084008313801F612F831273
:102E980003136208023E840083170008F200033E11
:102EA80084000008710603195D2F7208023E840031
:102EB800512F7208033E8400800171088400831337
:102EC8008001800A0800F100831203136208033EA0
:102ED80084008317000871060319762F710884008F
:102EE80083138003710884008313801B7D2FF001F6
:102EF800852F6208033E8400710883178000F00163
:102F0800F00A70080800F4000310740D903E840065
:102F180083170008F2000530F301F2070318F30ADB
:102F2800700BAD2F0130F1000310740D913E840039
:102F3800000AA02F0310F10DFF3E031D9E2F7108FC
:102F4800FF00720884008317731C83137F088004B2
:102F580008007008031D08000130F1000310740D0B
:102F6800913E8400000ABA2F0310F10DFF3E031DA5
:102F7800B82F7108FF3AFF00720884008317731C8A
:102F880083137F0880050800F9007908F8000030ED
:102F9800D3270A168A11003A03190034C92F0130C1
:102FA80083129F051F161F151F19D82F7808840034
:102FB8001E08F300F20183161E08F2070318F30A2D
:102FC8000230F000F1010A168A158C22700883136A
:102FD800800000340430F001872708000530F00134
:102FE800872708001430E200620A8400831700086B
:102FF8000A128A116F20080018308A000408840A0F
:10300800820700340034003480343F34183472347A
:1030180031343F34F034FD3475343E344734583459
:1030280063343D34583495341D343C348234C434CC
:10303800AE343A34A834783421343934EF34933404
:1030480080343734A0349234A73435344634563477
:10305800153434340034003400340034C434FF34BC
:103068007F343F348034EF34FF34BE349034E1345D
:10307800A9343E34EC3482347634BE348234AD34F0
:103088002B343E340E343C34C334BD348734D1340D
:0C30980013343D3441347834D334BB345D
:1033C20064008001840A0406031900340406E22919
:1033D2001030E200620A8400831700080A128A1180
:1033E2004E20080003176408831203138F0083160C
:1033F20003176308831203138E000C105F08023E4A
:103402008400831700080A128A116F2008000C1C1E
:10341200112A83166F080A128A116F200A168A155A
:10342200831203132708FF0026088A002508840058
:10343200240E8300FE0E7E0E09007708780403191D
:103442003D2AFB01FB0AF81B2A2A0310F70DF80D8F
:10345200232A78087A02031D302A77087902031C8E
:10346200392A7708F9027808031CFA03FA020310D2
:10347200F80CF70CFB0B2A2A7A08F8007908F700F7
:103482000800F3000310730D903E840083170008B8
:10349200F1000530F201F1070318F20A0130F000E1
:1034A2000310730D913E8400000A592A0310F00D97
:1034B200FF3E031D572A7008FF007108840083171E
:1034C200721C83137F0880060800831203136208AC
:1034D200840083176208801F812A8400801384007D
:1034E200000E0739DB3E84000008A3000130031000
:1034F200A30DFF3E0310031D792A230D103E842ADB
:10350200023E84000008E200620A840000080A12F7
:103512008A116F200800F501F11F962AF009F109BE
:10352200F00A0319F10AF501F50AF31F9F2AF209BD
:10353200F309F20A0319F30A0130F506F601F7015D
:10354200700871040319C42AF401F40AF11BAD2AAC
:103552000310F00DF10DA62A0310F60DF70D7108F8
:103562007302031DB62A70087202031CC02A700877
:10357200F2027108031CF303F30276140310F10C38
:10358200F00CF40BAD2A75080319CC2AF609F709D9
:10359200F60A0319F70A7708F1007608F000080026
:1035A200AD01A91FDB2AA809A909A80A0319A90ABA
:1035B200AD01AD0AAB1FE42AAA09AB09AA0A031995
:1035C200AB0A0130AD06AE01AF0128082904031988
:1035D200092BAC01AC0AA91BF22A0310A80DA90DF4
:1035E200EB2A0310AE0DAF0D29082B02031DFB2A97
:1035F20028082A02031C052B2808AA022908031CF2
:10360200AB03AB022E140310A90CA80CAC0BF22ACC
:103612002D080319112BAE09AF09AE0A0319AF0A1F
:103622002F08A9002E08A80008008B138312031389
:103632006308FB3EF500FF3003180030F600803AC5
:10364200803C031D262B750864020318322B592374
:103652000A168A11EE270A168A15831203136015B9
:103662004E2B831203136308053EF5000030031846
:103672000130F600803AF70080307702031D432BB9
:103682006408750203184E2B52230A168A11F22778
:103692000A168A158312031360118B178312031300
:1036A200162B0430F001F00A0A168A118727080047
:1036B2000530F001F00A0A168A1187270800013442
:1036C2000034013401340134023401340734023449
:1036D200023402340534003400340034003400343F
:1036E2000034013400340034013401340034013434
:1036F2000234003401340734013403340034013419
:103702000034043401340034053401340334003409
:10371200043405340234E83403340034A0348634EB
:1037220001340034083402340334003402340434E3
:1037320000340234053401340234023401340034DA
:1037420002340034023401340134F43401341C34C0
:10375200A0348B13831203136308FB3EAD00FF30CA
:1037620003180030AE00803A803C031DBA2B2D08AE
:1037720064020318C42BF4230A168A15E2230A16DC
:103782008A156015DE2B831203136308053EAD0014
:10379200003003180130AE00803AAF0080302F02B3
:1037A200031DD52B64082D020318DE2BEC230A1609
:1037B2008A15E7230A168A1560118B1783120313E1
:1037C200AA2B0430A8010A128A11082C0530A8017C
:1037D2000A128A11082C831203130430A801A80AC2
:1037E2000A128A11082C831203130530A801A80AB1
:1037F2000A128A11082C83160317EE01EF018316B1
:1038020003176E086E076E07A23E0A168A110B2175
:103812000A168A1583160317EE0A0319EF0A6F08B0
:10382200803AFF0080307F02031D192C04306E02A3
:10383200031C002C34300A168A15E7260A168A154C
:10384200B7300A168A115F200A168A15D9300A166D
:103852008A1111200A168A15D3300A168A110F20EE
:103862000A168A15CA300A168A111F200A168A15E4
:10387200D6300A168A11B4210A168A150A168A1532
:10388200E9210A168A150A128A112D210A168A15A9
:103892000A168A150C250A168A150A128A1143215C
:1038A2000A168A150A128A1166210A168A150A123E
:1038B2008A1196200A168A150A128A11F8200A1607
:1038C2008A150A128A11AA200A168A150A168A1558
:1038D200AA230A168A150A128A11BF200A168A1505
:1038E200442C4C088312B90083164B088312B8008B
:1038F20083164A088312B700831649088312B6005A
:10390200BA01BB01BC01BD010A128A15D8240A16EC
:103912008A15031C922C8316C901CA01CB01CC0162
:10392200080083164C087F398312DD00DE01031084
:10393200DD0DDE0D5D088316CD070318CE0A831256
:103942005E088316CE074B0D4B0D0139CD070318C8
:10395200CE0ACE1FB12CC901CA01CB01CC0108008D
:103962004E08803AFF0081307F02031DBA2C0030DE
:103972004D02031CE92C831603134C088312AB007F
:1039820083164B088312AA0083164A088312A900E1
:10399200831649088312A800AC01AD01AE01AF0144
:1039A2000A128A15A1260A168A150318E12CFF307D
:1039B2008316CC007F30CB00FF30CA00C90008005C
:1039C2007F308316CC00CB00FF30CA00C90008004C
:1039D200831603134E088312DE0083164D088312EA
:1039E200DD005E0DDE0CDD0C83164C0883125D06D5
:1039F20080395D068316CC004D0801398312DD0043
:103A0200DD0CDD0C83164B0883125D067F395D06E3
:103A12008316CB0008008B136330AA00AB01AB0AFC
:103A2200610877250A168A1583126308031D1B2D68
:103A32003C30E30001300A128A11D3210A168A159A
:103A42008B170C2DA9002908031D0800C5250A168D
:103A52008A15911583128C1D2B2D8C11C52583126D
:103A6200280884001308831380000800B000CD25C5
:103A72000A168A15A030B5250A168A15003A0319C6
:103A8200462DB2250A168A153B2D30308312A80026
:103A9200003066250A168A15AE01AF012B08AC006C
:103AA200AD012D082F02031D582D2C082E020318DC
:103AB200652D2A08A800003066250A168A15AA0A6A
:103AC200AE0A0319AF0A4F2DD52DA9002908031DEF
:103AD2000800C5250A168A15831228088400831354
:103AE200000893008C1D732D8C110800B000CD25A9
:103AF2000A168A15A030B5250A168A15003A031946
:103B0200862DB2250A168A157B2D30308312A80025
:103B1200003066250A168A15B2250A168A15A130C2
:103B2200B5250A168A158312AE01AF012B08AC0027
:103B3200AD012D082F02031DA02D2C082E02031803
:103B4200B12D2A08A800003023250A168A15AA0AD0
:103B5200D0250A168A158312AE0A0319AF0A972DC9
:103B6200D52DC525911408008312A800C5250A1673
:103B72008A158312280893008C1DBD2D8C110030EC
:103B82008316111B0130080083161419C52D110864
:103B92001F3903190800C52DC52511140800831605
:103BA2009112C52511160800C525111508005508E2
:103BB2008312C500831654088312C4008316530867
:103BC2008312C300831652088312C200DA30C60081
:103BD2009C260A168A158316DB1F182E5508831297
:103BE200AB00831654088312AA008316530883126B
:103BF200A900831652088312A800AC01AD01AE01E0
:103C0200AF010A128A15A1260A168A150318122E66
:103C1200BF308316D5008030D4000030D301D201EA
:103C220008008316D201D301D401D5010800003067
:103C32005B021D3003195A02031808005508CD0013
:103C42005408CC005308CB005208CA000A128A1545
:103C52008A270A168A1583164D088312AB0083162B
:103C62004C088312AA0083164B088312A9008316FC
:103C72004A088312A80001300A128A1518270A1668
:103C82008A152B088316D90083122A088316D800B6
:103C9200831229088316D700831228088316D600B8
:103CA20055088312AB00831654088312AA008316A8
:103CB20053088312A900831652088312A8008316A0
:103CC20059088312AF00831658088312AE00831678
:103CD20057088312AD00831656088312AC000A12ED
:103CE2008A15A1260A168A150318922EBF3083164A
:103CF200B0008030AF00AE01AD015908B4005808E1
:103D0200B3005708B2005608B1000A128A15A02162
:103D12003008D5002F08D4002E08D3002D08D20079
:103D2200080083165908D5005808D4005708D30054
:103D32005608D20008004508B9004408B8004308F4
:103D4200B7004208B600BA01BB01BC01BD010A12AC
:103D52008A15D8240A168A15031CBA2E460884002E
:103D620083138001840A8001C201C301C401C50119
:103D7200080045087F39C700C8010310C70DC80DE8
:103D820046088400470883138000840A480880009C
:103D9200440D440D0139C700C80146088400470894
:103DA2008004840A48088004460884008230800720
:103DB200840F00080318000AFF00FF3E80008403FE
:103DC200450880393F38C500C41308008312031325
:103DD200B900BA01BB01390884003B08803AAE0041
:103DE20080302E02031DF82E831700083A020318B2
:103DF200872F83120313B601B7013A083907AE00C1
:103E02002E0A84003708803AAF0080302F02031D4B
:103E12000D2F8317000836020318742F8312031321
:103E22003A083907AE002E0A840083170008A8005A
:103E3200A9013608013EAA0037080318013E003ED8
:103E4200AB00C3270A168A152808AF0010300310EA
:103E5200AF0D0310AF0D2F07B0003808B1000130CD
:103E62000310B10DFF3E0310031D322F310D300739
:103E7200FF003808B20012300310B20D0310B20D69
:103E82003207B3003608B40001300310B40DFF3E10
:103E92000310031D472F340D3307B50084007F083C
:103EA20080003A08AE003808AF0010300310AF0DA2
:103EB2000310AF0D2F07B0003608B1000130031018
:103EC200B10DFF3E0310031D612F310D3007B2000B
:103ED2008400AE0E00082E068F392E068000B60A28
:103EE2000319B70AFE2E831203133A08DA3E84003E
:103EF2003808831780003A083907AE002E0A84007A
:103F02000008B807BA0A0319BB0AEC2E831203137E
:103F1200BC01BD01831203133C08AE000130031043
:103F2200AE0DFF3E0310031D912F2E0D103E840097
:103F3200831700083C06F0393C0680003C0839072C
:103F4200AE00063E84000008FF003C08AF000130CE
:103F52000310AF0DFF3E0310031DAA2F2F0D113EBC
:103F620084007F088000BC0A0319BD0A3D08803A1C
:103F7200FF0080307F02031DC02F09303C0203186E
:103F820008008B2FAD01AB1FCD2FAA09AB09AA0ADE
:103F92000319AB0AAD01AD0AA91FD42FA809A909BB
:103FA200A80A0319A90A280829040319F32FAC0146
:103FB200AC0AA91BE02F0310A80DA90DD92F2908BF
:103FC2002B02031DE62F28082A02031CEF2F2808C4
:103FD200AA022908031CAB03AB020310A90CA80C0C
:103FE200AC0BE02F2D080319FB2FAA09AB09AA0A73
:0E3FF2000319AB0A2B08A9002A08A800080032
:02400E007A3FF7
:00000001FF
