:020000040000FA
:060000000A128A11122809
:10000800FE00030E83120313A2000408A3000A08CB
:10001800A4007F08A5000A128A159E2A0A128A11CE
:100028001528EC308317FD000B30FE00AC30FF00C4
:10003800903084000A128A159E210A128A11D7303C
:100048008313FD000A30FE006730FF00A0308400F3
:100058000A128A159E210A128A11A030E700103070
:10006800E801E9018317840034300A128A156D21EA
:100078000A128A11D73083138400E8300A128A15CD
:100088006D210A128A114630840067300A128A15D7
:100098006D2183010A128A153C2AFF0000308A006C
:1000A8007F08820756280A128A11882C0A128A1594
:1000B800E02D0A128A15BB2D0A128A150F2D0A1275
:1000C8008A15A32DFF0000308A007F0882076B285D
:1000D8000A128A153E2E0A128A11972E0A128A11BE
:1000E8006C2E0A128A157F2C0A128A11502E0A12B7
:1000F8008A11FA2F0A128A15DE2A0A128A11F92F92
:100108000A128A157E290A128A15082C0A128A15DB
:10011800752983160313E901EA0183160313690895
:1001280069076907A23E8312A9000130AA009A2331
:100138000A128A118316E90A0319EA0A6A08803A38
:10014800FF0080307F02031DAB2804306902031CC6
:100158009128B8302E2467300A128A15AB210A126A
:100168008A11BD3084240A128A11D130BF200A12A4
:100178008A11A93080298316E800B130D4200A12E8
:100188008A11831668088312A900AA019A230A1201
:100198008A1183166808033E8312A900AA019A2BC4
:1001A8008312BD00E1000C3097040330A6003D081F
:1001B8008400831300080A128A158C210A128A11F6
:1001C800C53EA900AA019A230A128A113E3084006A
:1001D800E030B7000408B8000830B90037088400D8
:1001E80083130008BA00B70A380884003A08800068
:1001F800B80AB90BF2280230BE003D088400000896
:10020800BF003D0A84000008B700840A0008B8004F
:100218003708A6003808A7000F30A801A901AD01CA
:10022800AC004230AB004030AA00DE220A128A112C
:100238002708C1002608C0000230C3003E30C401B0
:1002480080210A128A113D08053E8400000B3829D6
:100258006430AC00AD013D08033E84000008A600F0
:10026800840A0008A70051293D08053E84000008BB
:10027800031D65296430AC00AD01A600A7013D0847
:10028800033E84000008B700840A0008B800370855
:10029800A6023808031CA703A702FE30A8000130F5
:1002A800A9000A128A15BE210A128A112708AF006E
:1002B8002608AE000A128A11CB252D08BC002C088E
:1002C800BB006108063E840083138001800A3B0856
:1002D800303997043C08B8003B08B7000310B80C45
:1002E800B70C0310B80CB70C370895006108063E28
:1002F8008400023080000800B60084008313000BDD
:100308005A2A360A84000008031D5A2A3608053E70
:1003180084000008031D5A2A3608063E840003108C
:10032800000D90043608023E84000008B400840AD8
:100338000008B50000303502283003193402031CC8
:10034800AF2990013608023E84000008B400840AF0
:100358000008B500CB293608023E84000008B40026
:10036800840A0008B500003035021530031934023C
:10037800031CD229103090003608023E8400000881
:10038800B400840A0008B5000310B40DB50D0310BD
:10039800B40DB50D0310B40DB50D152A3608023E7F
:1003A80084000008B400840A0008B5000030350253
:1003B8000B3003193402031CF5292030900036084D
:1003C800023E84000008B400840A0008B500F0303A
:1003D800B40EB50EB50534080F39B504F030B405C0
:1003E800152A3608023E84000008B400840A000872
:1003F800B50000303502063003193402031C292ADF
:10040800303090003608023E84000008B400840AA8
:100418000008B5000530FF000310B40DB50DFF0B43
:10042800102A3408A6003508A7009830A801A901A9
:10043800AD01AC009630AB008030AA00DE220A1273
:100448008A112609D8002709D9003608053E8400F4
:100458000008031D372A3608063E84000008031DDD
:10046800372A9010422A3608053E8400000B422A9B
:100478003608063E8400000B422A90143608E30032
:10048800073E84008001800A59088F0058088E00B2
:1004980010141930A60000300A128A116F27630859
:1004A800073E840002308313800008003608840069
:1004B80002300006031D08003608053E840002309D
:1004C8000006031D08003608023E84000008B40038
:1004D800840A0008B50027303502113003193402A8
:1004E800031C862A92013608023E84000008B400E4
:1004F800840A0008B5000310B40DB50D0310B40D3F
:10050800B50DC92A3608023E84000008B400840AE2
:100518000008B50009303502C53003193402031C40
:10052800A92A013092003608023E84000008B4006F
:10053800840A0008B500F030B40EB50EB5053408CD
:100548000F39B504F030B405C92A3608023E8400D4
:100558000008B400840A0008B5000230350259309A
:1005680003193402031CDB2A023092003608023ECB
:1005780084000008B400840A0008B5000630FF00B3
:100588000310B40DB50DFF0BC42A3408A6003508B6
:10059800A7009830A801A901AD01AC009630AB00C6
:1005A8008030AA00DE222608FF3E831692008312BE
:1005B80012150800AF01A91FEE2AA609A709A80964
:1005C800A909A60A0319A70A0319A80A0319A90A57
:1005D800AF01AF0AAD1FFD2AAA09AB09AC09AD09E5
:1005E800AA0A0319AB0A0319AC0A0319AD0A0130A8
:1005F800AF06B001B101B201B301290828042704EC
:10060800260403193C2BAE01AE0AA91B112B0310BB
:10061800A60DA70DA80DA90D082B0310B00DB10D3F
:10062800B20DB30D29082D02031D242B28082C0216
:10063800031D242B27082B02031D242B26082A021E
:10064800031C362B2608AA022708031C270FAB0217
:100658002808031C280FAC022908031C290FAD0227
:1006680030140310A90CA80CA70CA60CAE0B112B68
:100678002F0803194A2BB009B109B209B309B00A06
:100688000319B10A0319B20A0319B30A3308A900F6
:100698003208A8003108A7003008A6000800B400F6
:1006A800CB30A900AA019A230A128A11CE30A900D8
:1006B800AA019A230A128A113408063E8400831775
:1006C80000080F3994049416831691018312340894
:1006D800023E84000008A600840A0008A700840AD5
:1006E8000008A800840A0008A9000230B30003101B
:1006F800A60DA70DA80DA90DB30B7B2B0030AD00DF
:100708009830AC009630AB008030AA000A128A15E7
:1007180064232608FF3E831693009401831234084D
:10072800E2000B3E84008001800A0800290884004A
:1007380083172A1C83130008B0008530B101B00765
:100748000318B10A2908840083172A1C8313000898
:10075800AE000530AF01AE070318AF0A2908023E04
:10076800AB002A080318013EAC002B08840083174D
:100778002C1C8313000BFF2B0130AB002908013E12
:10078800AC002A080318013EAD002C08840083172A
:100798002D1C8313000AD22B0310AB0DFF3E031D43
:1007A800D02B2B08FF3AFF00300884008317311C38
:1007B80083137F0880050130AB002908013EAC0097
:1007C8002A080318013EAD002C08840083172D1C4D
:1007D8008313000AF12B0310AB0DFF3E031DEF2B13
:1007E8002B08FF3AFF002E08840083172F1C831361
:1007F8007F08800508002908023EAB002A08031874
:10080800013E003EAC002B08840083172C1C831388
:100818000008031D08000130AB002908013EAC00A8
:100828002A080318013EAD002C08840083172D1CEC
:100838008313000A212C0310AB0DFF3E031D1F2C50
:100848002B08FF00300884008317311C83137F08AE
:100858008004080083120313B60084008313000881
:100868008316A000A0300A128A15F8210A128A11EC
:1008780083120313B701B8013608043E8400380810
:10088800803AB50080303502031D4D2C83130008D3
:1008980037020318782C83120313360A8400831353
:1008A8000008FF00370837073707A33E84007F0892
:1008B800800037083607B500023E84000008FF00B4
:1008C800370837073707A43E84007F0880003708B9
:1008D80037073707A33EA900AA019A230A128A11EB
:1008E800B70A0319B80A402C831203133608053EC9
:1008F800840083130008D600840A0008D700080083
:10090800B7000A128A11FF2E8B13033083120313C8
:100918006406031D952CB801B80A660899240A12C2
:100928008A118B1783120313882CBB003808031D08
:10093800DE2C2030AB0000306E250A128A110A30F6
:10094800A6003B0810260A128A117D250A128A1170
:10095800AB0003306E250A128A11A33083120313E9
:10096800BA005430B900B90BB72CBA0BB72C000039
:10097800103083120313AB0000306E250A128A115F
:100988000A30A6003B08F5250A128A117D250A12AD
:100998008A11AB0003306E250A128A11A330831224
:1009A8000313BA005430B900B90BD82CBA0BD82CA1
:1009B80000000800380B08006430AC00AD0157088F
:1009C800AF005608AE00CB250A128A112D08550231
:1009D800031DF02C2C0854022030AB000030031803
:1009E800252D6E250A128A110A30A6003B0810260A
:1009F8000A128A117D250A128A11AB0003306E256E
:100A08000A128A11A33083120313BA005430B900B2
:100A1800B90B0C2DBA0B0C2D0000103083120313E8
:100A2800AB0000306E250A128A110A30A6003B0876
:100A3800F5250A128A117D250A128A11AB000330A6
:100A4800422D6E250A128A110330AB016E250A1257
:100A58008A11A33083120313BA005430B900B90BBA
:100A6800332DBA0B332D0000103083120313AB0063
:100A780000306E250A128A110330AB016E250A1266
:100A88008A11A33083120313BA005430B900B90B8A
:100A98004B2DBA0B4B2D0000323083120313AC00E0
:100AA800AD015708AF005608AE00CB250A128A11CF
:100AB8002D08B4002C08B3005408013EB5005508B1
:100AC8000318013E003EB6002C263408D500330832
:100AD800D4000800AC00AD000530AE01AD07031826
:100AE800AE0A2D08840083172E1C83132B08800060
:100AF8000800A800902D3F3406345B344F34663428
:100B08006D347D3407347F346F3477347C34583413
:100B18005E347934713400342808A600A701270808
:100B2800003A0319982D8F2D2608003A03197F2DB6
:100B3800013A0319802D033A0319812D013A03194B
:100B4800822D073A0319832D013A0319842D033A9C
:100B58000319852D013A0319862D0F3A0319872D9C
:100B6800013A0319882D033A0319892D013A03190B
:100B78008A2D073A03198B2D013A03198C2D033A54
:100B880003198D2D013A03198E2D8F2D0800B101FF
:100B9800B2012C082D040319F02DB001B00AAD1BC9
:100BA800D92D0310AC0DAD0DD22D0310B10DB20D22
:100BB8002D082F02031DE22D2C082E02031CEC2DFC
:100BC8002C08AE022D08031CAF03AF02311403102A
:100BD800AD0CAC0CB00BD92D3208AD003108AC000F
:100BE8000800A700A901260803190E2EA801A80AC3
:100BF800A61B012E0310A60DFB2D0310A90D260818
:100C08002702031C0B2E2608A70229140310A60C82
:100C1800A80B012E29080800A8000830A900AA017D
:100C28002808A70007300310A70CFF3E0310031D78
:100C3800182E2A0D2704AA000310A80D26082A0238
:100C4800031C282E2608AA02A90B142E2A0808001D
:100C58003308340403194B2EB701B70AB41B382ED6
:100C68000310B30DB40D312E34083602031D3E2E89
:100C780033083502031C472E3308B5023408031C19
:100C8800B603B6020310B40CB30CB70B382E3608F3
:100C9800B4003508B30008008B13831203136408EB
:100CA800031D682E0130D3260A128A11003A031D4B
:100CB800682E0130D3260A128A11003A03195D2ED4
:100CC80083120313E401E40A8B1783120313502ED3
:100CD8008B130230831203136406031D932E003016
:100CE800D3260A128A11003A0319812E0230D3261C
:100CF8000A128A11003A031D932E0030D3260A12D5
:100D08008A11003A0319812E0230D3260A128A1159
:100D1800003A0319812E033083120313E4008B1762
:100D2800831203136C2E8B13033083120313640690
:100D3800031DCF2E0030D3260A128A11003A031D54
:100D4800B72E2830831203136602031CB72E003017
:100D5800D3260A128A11003A0319AB2E05308312E2
:100D68000313E602CF2E0230D3260A128A11003A64
:100D7800031DCF2E47308312031366020318CF2EAC
:100D88000230D3260A128A11003A0319C42E0530FC
:100D980083120313E6078B1783120313972EF500AC
:100DA800F4010310750D903E840083170008F200CB
:100DB8000530F301F2070318F30A0310750D913E8D
:100DC80084000008F100720884008317731C8313E1
:100DD8000130F000710AF22E0310F00DFF3E031DE2
:100DE800F02E700800050319FC2EF401F40AFD2EFC
:100DF800F40174080800B6009F0183169F0183124E
:100E0800B401B501360884003508803AB200803054
:100E18003202031D122F8317000834020318582FBB
:100E280083120313340834073407C83EA90001307D
:100E3800AA000A128A119A230A128A11340836075C
:100E4800B200320A840083170008B3000310B30D00
:100E58000310B30D0310330D9F043608083E8400B9
:100E680000080339B200B20CB20C320CC0399F042E
:100E78003608083E8400000E403983169F0483120A
:100E88003608073E84000008B20006300310B20D91
:100E9800FF3E0310031D4B2F320D83169F04831250
:100EA800B40A0319B50A062F831603139F14831275
:100EB8001F143608063E84008317000B672F1C306A
:100EC800A60001306F273608E0000A3E8400831729
:100ED8008001800A0800A7002708031D7B2F0C103B
:100EE80083160C140B178B1783122608CF00270BB9
:100EF800852F0C1383160C170B178B1783122608D4
:100F0800D00002302706031D912F0C1283160C12F5
:100F18000B178B1783122608D10003302706031DF1
:100F28009D2F8C1283168C120B178B178312260891
:100F3800D20004302706031D08008B108316011306
:100F48000B168B1783122608D300080007308A0077
:100F58000408840A820700340A3444344534563479
:100F680045344C344F3450344D3445344E34543475
:100F78005F344534523452344F34523400340A34D6
:100F880049346E347334743461346E346334653484
:100F9800493464343A3420343034783400340A34F0
:100FA8004D346F34643475346C3465344934643486
:100FB8003A3420343034783400340A3445347234C6
:100FC80072346F347234493464343A3420343034EF
:100FD800783400340A344134703469344934643420
:0E0FE8003A34203430347834003408000800E5
:1012DA0064008001840A04060319003404066E2996
:1012EA008C1E08005D0884001A08831380008C1283
:1012FA00080059088F0058088E000C106308043E35
:10130A008400831300080A128A1166200800A800C4
:10131A00A70126082818A7070310A60D0310A80C72
:10132A002808031D8E29270808007E088A007F08DE
:10133A0082009A210A128A158000840A04087D060E
:10134A0003190034FF0A0319FE0A9E29B500B130B9
:10135A000A128A1153233508840083130008FF00F8
:10136A00840180003508DE00023E84008001800A84
:10137A000800AA01AB01261CC8292808AA070318D5
:10138A00AB0A2908AB070310A80DA90D0310A70C77
:10139A00A60C26082704031DC0292B08A7002A0823
:1013AA00A6000800A700A801A901831203132808B0
:1013BA002707A600840083170008FF002808D73EE5
:1013CA0084007F0883138000A80A0319A90A290840
:1013DA00803AFF0080307F02031DF5290930280278
:1013EA0003180800DA298312B200B301B401831288
:1013FA0003133208A900AA010A128A119A230A12AF
:10140A008A15320A84008313800AB30A0319B40ABC
:10141A003408803AFF0080307F02031D162A083004
:10142A00330203180800FC2983120313A700A8013A
:10143A00A9018312031328082707A600840083172B
:10144A000008FF002808463E84007F0883138000B6
:10145A00A80A0319A90A2908803AFF0080307F02E6
:10146A00031D392A09302802031808001E2AD13020
:10147A000A128A15D7210A128A15DA300A128A152F
:10148A0019220A128A150A128A151F230A128A15A4
:10149A000A128A15A3250A128A150A128A150F2515
:1014AA000A128A150A128A15BB250A128A150A1205
:1014BA008A15E0250A128A150A128A1188240A1244
:1014CA008A154D2A033400340134003404340134BB
:1014DA0000340534013401340034E834033413345D
:1014EA000034003400340134F4340134003400345C
:1014FA000134003403340034043405340234E8344B
:10150A00033402340634003402340734003402341B
:10151A000134013402340234013402340334003415
:10152A0002340434003402340534013402340234FF
:10153A0001340C1CA62A4F080A128A1166200A12C4
:10154A008A15831203130C1FB02A50080A128A1133
:10155A0066200A128A15831203130C1EBD2A51082B
:10156A000A128A1166200A128A15831203130C12B0
:10157A008C1EC82A52080A128A1166200A128A1573
:10158A00831203138C128B1CD12A53080A128A1154
:10159A0066200A128A158B10831203132508FF008E
:1015AA0024088A0023088400220E8300FE0E7E0E81
:1015BA000900E0220800DC0A5C0883165702031CB3
:1015CA00EC2A831246080A128A116620080083123E
:1015DA005C0883165802031CF82A831247080A1269
:1015EA008A116620080083125C0883165902031CBC
:1015FA00042B831248080A128A11662008008312F3
:10160A005C0883165A02031C102B831249080A121B
:10161A008A116620080083125C0883165B02031C89
:10162A001C2B83124A080A128A11662008008312A8
:10163A00DC0108000A128A118D200A128A15252B4C
:10164A00DC0A5C0883165702031C312B83124608F6
:10165A000A128A115120080083125C088316580264
:10166A00031C3D2B831247080A128A1151200800D5
:10167A0083125C0883165902031C492B83124808FB
:10168A000A128A115120080083125C0883165A0232
:10169A00031C552B831249080A128A11512008008B
:1016AA0083125C0883165B02031C612B83124A08AF
:1016BA000A128A11512008008312DC010800AE01C7
:1016CA00AF01B001B101290828042704260403192F
:1016DA00A32BB201B20AA91B782B0310A60DA70DE2
:1016EA00A80DA90D6F2B0310AE0DAF0DB00DB10DE6
:1016FA0029082D02031D8B2B28082C02031D8B2B76
:10170A0027082B02031D8B2B26082A02031C9D2B5C
:10171A002608AA022708031C270FAB022808031C65
:10172A00280FAC022908031C290FAD022E1403103E
:10173A00A90CA80CA70CA60CB20B782B3108A9008F
:10174A003008A8002F08A7002E08A60008000134B8
:10175A0004340134013401340334013407340234CB
:10176A0002340234053400340034003400340034C6
:10177A0000340134003400340134013400340134BB
:10178A0002340034013407340134003400340034A4
:10179A0000340034A0348634013400340834003470
:1017AA00003400340134003401340234003400348B
:1017BA000134053400340134013410340034003467
:1017CA00003400340034013400340034023400346C
:1017DA000134033405340734093400340034003446
:1017EA0000340D340A34073404340134003400342C
:1017FA000034003480342534003400340134003499
:10180A000034003400345F08840083130008840025
:10181A001E08F300F20183161E08F2070318F30AE2
:10182A000230F000F1013A247008800083125F0848
:10183A008400000884000008F0006008093E840063
:10184A00831700080A128A1166200A128A150C13D5
:10185A006008063E8400000B342C1F15080060083F
:10186A000A3E8400033080000800F501F11F442C71
:10187A00F009F109F00A0319F10AF501F50AF31F53
:10188A004D2CF209F309F20A0319F30A0130F5069D
:10189A00F601F701700871040319722CF401F40AB5
:1018AA00F11B5B2C0310F00DF10D542C0310F60DF7
:1018BA00F70D71087302031D642C70087202031C71
:1018CA006E2C7008F2027108031CF303F3027614FB
:1018DA000310F10CF00CF40B5B2C750803197A2C2D
:1018EA00F609F709F60A0319F70A7708F1007608E4
:1018FA00F00008008B13640B922C6630F100F201A1
:10190A00F20A6508A4240A128A1583126608031DBE
:10191A00902C3C30E6000230E4008B177F2CEF2439
:10192A000A128A15911583128C1D982C8C11EF249A
:10193A007008840083121308831380000800F700DC
:10194A00FC240A128A15A030E0240A128A15003AE9
:10195A000319B32CDD240A128A15A82C7730F0005B
:10196A000030FF240A128A15DD240A128A15A130D2
:10197A00E0240A128A15F501F6017208F300F4014F
:10198A0074087602031DCB2C730875020318DB2C2E
:10199A007108F000003094240A128A15F10AF7241B
:1019AA000A128A15F50A0319F60AC22C0C25080030
:1019BA00EF2491140800F000EF240A128A15700827
:1019CA00831293008C1DE72C8C1100308316111B97
:1019DA000130080083161419EF2C11081F39031956
:1019EA000800EF2C83169112EF2411160800EF2439
:1019FA0011140800EF240A128A1570088400831350
:101A0A000008831293008C1D082D8C110800EF2406
:101A1A00111508008B13640B222D6630A700A8014C
:101A2A00A80A650834250A128A1583126608031D56
:101A3A00202D3C30E6000230E4008B170F2D832561
:101A4A000A128A15911583128C1D282D8C11832553
:101A5A008312260884001308831380000800AD004F
:101A6A0090250A128A15A03073250A128A15003A9F
:101A7A000319432D70250A128A15382D2D30831229
:101A8A00A600003093250A128A1570250A128A15B3
:101A9A00A13073250A128A158312AB01AC012808FA
:101AAA00A900AA012A082C02031D5D2D29082B0270
:101ABA0003186E2D2708A600003024250A128A155D
:101ACA00A70A8B250A128A158312AB0A0319AC0AD4
:101ADA00542DA02500348325911408008312A600F2
:101AEA0083250A128A158312260893008C1D7B2DE2
:101AFA008C1100308316111B01300800831614194B
:101B0A00832D11081F3903190800832D831691129A
:101B1A0083251116080083251114080083250A124B
:101B2A008A158312260884008313000893008C1DEB
:101B3A009C2D8C1108008325111508008B13831224
:101B4A0003136408031DB92D013010260A128A15E1
:101B5A00003A031DB92D013010260A128A15003ADF
:101B6A000319B02DE401E40A8B17A32D8B1302305D
:101B7A006406031DDE2D003010260A128A15003A6B
:101B8A000319CE2D023010260A128A15003A031DB7
:101B9A00DE2D003010260A128A15003A0319CE2DBE
:101BAA00023010260A128A15003A0319CE2D033084
:101BBA00E4008B17BB2D8B1303306406031D0E2E16
:101BCA00003010260A128A15003A031DFA2D283011
:101BDA006602031CFA2D003010260A128A15003AF2
:101BEA000319F02D0530E6020E2E023010260A12D5
:101BFA008A15003A031D0E2E4730660203180E2E70
:101C0A00023010260A128A15003A0319052E0530E9
:101C1A00E6078B17E02D83120313AB00AA0103100A
:101C2A002B0D903E840083170008A8000530A901F7
:101C3A00A8070318A90A03102B0D913E8400000877
:101C4A00A700280884008317291C83130130A600E3
:101C5A00270A312E0310A60DFF3E031D2F2E26083C
:101C6A00000503193B2EAA01AA0A3C2EAA012A083A
:101C7A0008008B130330831203136406031D4B2ED3
:101C8A00FC01FC0A66084F260A128A158B17831272
:101C9A0003133E2EFD007C08031D922E2030F50012
:101CAA0000301E270A128A150A30F0007D0896278E
:101CBA000A128A152D270A128A15F50003301E27E3
:101CCA000A128A15A33083120313A1005430A0000C
:101CDA00A00B6D2EA10B6D2E00001030F500003008
:101CEA001E270A128A150A30F0007D087B270A127D
:101CFA008A152D270A128A15F50003301E270A12A3
:101D0A008A15A33083120313A1005430A000A00B3C
:101D1A008C2EA10B8C2E000008007C0B080064306E
:101D2A00F000F1015708F3005608F200B2270A1230
:101D3A008A1571085502031DA42E7008540220301A
:101D4A00F50000300318D72E1E270A128A150A300A
:101D5A00F0007D0896270A128A152D270A128A157D
:101D6A00F50003301E270A128A15A33083120313C3
:101D7A00A1005430A000A00BC02EA10BC02E000061
:101D8A001030F50000301E270A128A150A30F000BA
:101D9A007D087B270A128A152D270A128A15F50053
:101DAA000330F22E1E270A128A150330F5011E2768
:101DBA000A128A15A33083120313A1005430A0001B
:101DCA00A00BE52EA10BE52E00001030F500003027
:101DDA001E270A128A150330F5011E270A128A15D0
:101DEA00A33083120313A1005430A000A00BFB2ED2
:101DFA00A10BFB2E00003230F000F1018312031315
:101E0A005708F3005608F200B2270A128A15710819
:101E1A00F8007008F7005408013EF9005508031845
:101E2A00013E003EFA00DC277808D5007708D40086
:101E3A000800F600F7000530F801F7070318F80A5A
:101E4A00770884008317781C8313750880000800BC
:101E5A00F200402F3F3406345B344F3466346D341D
:101E6A007D3407347F346F3477347C3458345E34AD
:101E7A007934713400347208F000F1017108003AC3
:101E8A000319482F3F2F7008003A03192F2F013AE0
:101E9A000319302F033A0319312F013A0319322F4C
:101EAA00073A0319332F013A0319342F033A031956
:101EBA00352F013A0319362F0F3A0319372F013AF2
:101ECA000319382F033A0319392F013A03193A2F04
:101EDA00073A03193B2F013A03193C2F033A031916
:101EEA003D2F013A03193E2F3F2F0800F100F3015D
:101EFA0070080319942FF201F20AF01B872F0310BE
:101F0A00F00D812F0310F30D70087102031C912F3D
:101F1A007008F10273140310F00CF20B872F730888
:101F2A000800F2000830F300F4017208F1000730EB
:101F3A000310F10CFF3E0310031D9E2F740D710454
:101F4A00F4000310F20D70087402031CAE2F70081F
:101F5A00F402F30B9A2F74080800F401F5017008D3
:101F6A0071040319D72FF601F60AF11BC02F0310CB
:101F7A00F00DF10DB92F0310F40DF50D7108730270
:101F8A00031DC92F70087202031CD32F7008F202B6
:101F9A007108031CF303F30274140310F10CF00C20
:101FAA00F60BC02F7508F1007408F00008007708D6
:101FBA0078040319FB2FFB01FB0AF81BE82F031017
:101FCA00F70DF80DE12F78087A02031DEE2F770836
:101FDA007902031CF72F7708F9027808031CFA0321
:101FEA00FA020310F80CF70CFB0BE82F7A08F8003A
:061FFA007908F700080061
:02400E007A3FF7
:00000001FF
